:02000000322CA0
:0E000600213083120313FD00FD0B07280800B4
:100014000F3083120313FC004730FD00FD0B102842
:0A002400FC0B10280000000008008B
:06002E00000000000800C4
:1000340083160313D91B21288312881323288312C0
:1000440088178316591B2928831208132B28831217
:1000540008178316D91A3128831288123328831279
:1000640088168316591A3928831208123B288312DA
:10007400081668183F280815402808118815172005
:1000840088118316D9194928831288134B2883129F
:100094008817831659195128831208135328831279
:1000A40008178316D9185928831288125B288312DB
:1000B400881683165918612883120812632883123C
:1000C4000816681867280815682808118815172065
:0E00D4008811681C6F280A207028032008007D
:1000E20083120313F801F9011030FC00710DF80DB1
:1000F200F90D7408F8027508031C750FF90203184C
:1001020089287408F80775080318750FF907031092
:0A011200F00DF10DFC0B772808003A
:10011C007B15FB1F98280130F300F201F101F0016F
:08012C00FA0DF20CFF3008008F
:08013400FA1FF213003008006D
:0E013C00F201F101F001F801F30100300800BA
:10014A00A0017208031DBA287108F2007008F100B4
:10015A00F001A0157208031DBA287108F200F10116
:10016A00A011201672080319C8282008F302031DDB
:10017A00031CCC280310F21BD028F00DF10DF20D50
:10018A00F30BC028CC280130FC009E20D328023073
:0E019A00FC008E20D3280430FC009A200800C0
:1001A8007B14FB1FDF28F201FA1FFF30F200F10079
:0A01B800F000FA0DF20CFF30080011
:1001C2000E3083120313FD00FD0BE528000008002A
:0E01D2008312031367088A0066088200080083
:1001E00083120313681083165408D9001A20681468
:0201F000080005
:1001F20083160313D701053057020318072957083E
:100202005607840020308000D70AFC28570856077A
:1002120084008001D70357085607D8000A30F4003B
:10022200F5015408F0005508F10071207808F0003B
:100232007908F1003030F0078316580884007008FE
:1002420080000A30F400F5015408F0005508F1006E
:10025200712070088316D4007108D5000030710631
:10026200031D352900307006031D38293A29D703AA
:040272000C2908004B
:10027600FB14FB1F4529FF30F300F200F100F000EC
:08028600FA0DF20CFF30080034
:06028E00FB15FF30080023
:10029400831203137408003A031D65297508003A94
:1002A400031D65297608003A031D65297708003A7D
:1002B400031D6529FF30F000FF30F1007F30F200AC
:1002C400FF30F300002A8312031377080319F4297B
:1002D40073080319F729720876068039FA00F217B1
:1002E400F617A0017208F8007108FC007008FD0000
:1002F4007408FD027508031C750FFC027608031CC4
:10030400760FF802F801FC01FD01031C902903108B
:10031400F20CF10CF00CF80C0130A0007708F30299
:10032400031C9A297E302007F3070318FA299F2912
:100334007E302007F307031CFD291830FA07FD0D52
:10034400FC0DF80DF00DF10DF20DA00D7408F00286
:100354007508031C750FF1027608031C760FF20270
:10036400760DA004201CB8297D14C3297408F00755
:1003740075080318750FF10776080318760AF20753
:100384007D10FA031F307A05031DA1297B1B7D1CF8
:10039400EA290310F00DF10DF20DA00D7408F0021E
:1003A4007508031C750FF1027608031C760FF20220
:1003B400760D20040139FD070318FC0A0319F80A15
:1003C400031DEA29F80CFC0CFD0CF30A0319FA29A5
:1003D400FA1FF8137808F2007C08F1007D08F00099
:1003E4000030FF2901304721FF2902309E20FF29D8
:0E03F40004303B21FF2908308E200000080055
:10040200831203137008F8007108F000F101F20181
:10041200F301FB01FC019630F300FA017008F100D0
:0C0422007808F000F801F201A5200800A5
:10042E00831203139F01C0309F044309F00070082C
:10043E0083169F051F179F174B08F000F00D7010C5
:10044E00F00D7010F00D7010700883129F041F14C1
:10045E00E1201F151F1D352A0000312A1F101E080E
:10046E00F100F00183161E08F0040030F1040800BC
:10047E0083120313FB01FC01FA01730803197E2A90
:10048E00F2178E30F302F31B4F2A03194F2A812ADB
:10049E00F309F30A08307302031C642AF300F10D0A
:1004AE007208F100F20108307302031C642AF10D88
:1004BE00F1017308031D03106C2A730803196C2ACB
:1004CE000310F20CF10CF30B672A7B1B711C762ABE
:1004DE00031C762AF10A0319F20AF21B8D2AFA1F5F
:1004EE00902AF209F109F10A0319F20A902AF2018F
:1004FE00F101902A7B14FB1F932AF201FA1F932A13
:10050E00FF30F200F100FA0DF20C932A0130FC00DC
:10051E00952A0030FC00952AFF30FC00FC080319D8
:0E052E00992AD4207108F0007208F10008002C
:10053C0083160313D001D1014B08D2004C08D30011
:10054C0080304C06F00080307002031DAF2A003062
:10055C004B020318BD2A0130D0000030D1004B08EB
:10056C00003CD2004C08031C013ED301D3025208BC
:10057C00D4005308D5004D08D600F9200630CE0023
:10058C000030CF004F08003C031DCE2A4E08003C23
:10059C000318E92A4E084D07F20001304E02F00014
:1005AC000030031C013E4F02F10070084D0784001F
:1005BC000008F00072088400700880000130CE0240
:1005CC00031CCF03C82A4D0884002030800050083B
:1005DC0051040319072BCE01CF014E084D0784009F
:1005EC000008203A031DFE2ACE0A0319CF0AF32A6B
:1005FC000130CE02031CCF034E084D0784002D3072
:04060C008000080062
:100610001A2B803083160313CB002D2BC030CB0058
:100620002D2B9430CB002D2BD430CB002D2B8030B4
:10063000CB002D2B831603134B08013A0319092B0A
:100640004B08023A03190E2B4B08033A0319112BDE
:100650004B08043A0319142B172B4C03F0004B08DA
:10066000F0077008CB007008D9001A2068108316B4
:10067000CE014E084D07840000080319482B4E0890
:100680004D0784000008D400F0208316CE0A392BD1
:060690008312681408004B
:1006960083160313CC01CD014B08F2004B08F3007F
:1006A600720884000008203A031D5E2B4C084D0496
:1006B600031D5E2B6B2B0130CC000030CD00720881
:1006C60084000008F0007308840070088000F30AB4
:1006D6007208F100F20A710884000008003A031D4E
:0806E600532B4B08F000080043
:1006EE00E9208A110A128000840AE60A0319E70A31
:0806FE00F003031D772B080037
:100706008316031388110811081288120813881318
:1007160083128811081188130813881208120A20F8
:100726000A200A20881608168815172088110A201C
:100736008815172088110A208815172088110A2085
:1007460008128815172088110A2088151720881185
:10075600881288178815172088110A20881308160A
:1007660088151720881108128815172088110A2065
:1007760088151720881108168815172088110A2051
:100786000812881517208811881708178816081662
:0C0796008815172088110A20681408003C
:1007A20083120313FB017308031D77080319282C16
:1007B20072087606FA007708F3077E30031CE52BF1
:1007C200F30203182B2CE82BF302031C2E2C7208C5
:1007D200F8007108FC007008FD00F817F617031006
:1007E200F201F101F0011830A0007D1C022C740806
:1007F200F00775080318750FF10776080318760FCE
:10080200F207F20CF10CF00CF80CFC0CFD0C0310CE
:10081200A00BF62BF21B122CF80DF00DF10DF20DC0
:10082200F3037B1B701C242CF81F242CF00A0319E1
:10083200F10A0319F20A031D242CF20CF10CF00C3C
:10084200F30A03192B2CFA1FF2130030302C01305B
:100852009E20302C02303B21302C04308E200000B0
:0208620008008C
:10086400FA2583120313EF019F0183169F01FF30C2
:10087400850083230C308316D9001A200130831697
:10088400CB000130CC004430CD0008230230831665
:10089400CB000130CC003230CD0008231530FB00F2
:1008A4004B30FC00BE30FD00FD0B562CFC0B562CCF
:1008B400FB0B562C000001308316CB000130CC001A
:1008C4002130CD00082302308316CB000130CC0048
:1008D4005530CD000823E901EA01ED01EE01EF01F5
:1008E40010306F020318962C8316CB011722700860
:1008F4008312E90771080318013EEA0701308316E1
:10090400CB00172270088312ED0771080318013E0B
:10091400EE071A30FC00F830FD00FD0B8F2CFC0BA9
:100924008F2C0000EF0A722C6908F4006A08F500A5
:10093400F50CF40CF513F50CF40CF513F50CF40CA0
:10094400F513F50CF40CF5137408E9007508EA00C6
:10095400EE0CED0CEE13EE0CED0CEE13EE0CED0CB8
:10096400EE13EE0CED0CEE137408F0007508F100B4
:1009740001220030F4000030F5004030F6008030F1
:10098400F7004A213F2270088316C9007108CA0083
:1009940049088312E90083164A088312EA000A30E0
:1009A400F4000030F50083164908F0004A08F1000D
:1009B400712070088316C7007108C8000A30F4005B
:1009C4000030F5004908F0004A08F1007120780869
:1009D400F0007908F1007008EB007108EC00831650
:1009E4004708CB004808CC00AB30CD009E228312D0
:1009F4006B088316CB0083126C088316CC00A430DA
:100A0400CD009E22A430CB004B2383126D08F0004E
:100A14006E08F1000122CD30F400CC30F5000C302A
:100A2400F6007F30F700D1233F2270088316C700F9
:100A34007108C80047088312ED0083164808831222
:100A4400EE006430F4000030F50083164708F0002F
:100A54004808F100712070088316C9007108CA00A3
:100A64006430F4000030F5004708F0004808F10055
:100A740071207808F0007908F10070088316C70027
:100A84007108C8000A30F4000030F5004708F0008F
:100A94004808F100712070088316A0007108A100B5
:100AA4000A30F4000030F5004708F0004808F1006F
:100AB40071207808F0007908F10070088316A2000C
:100AC4007108A3004908CB004A08CC00B930CD0016
:100AD4009E222008CB002108CC00B230CD009E22FB
:100AE4002208CB002308CC00C030CD009E22B230B7
:100AF400CB004B23C030CB004B230130CB0008305C
:100B0400CC00AB30CD0008232C308316D400F02069
:100B140001308316CB000F30CC00A430CD00082365
:100B240002308316CB000730CC00B930CD00082347
:100B34002C308316D400F02002308316CB000E3004
:100B4400CC00B230CD00082302308316CB000F3026
:0C0B5400CC00C030CD0008236D2CAF2D6C
:100BF40021308400453083120313F000B530E60041
:080C04000530E700772308002A
:100B6A0056346F346C3474343D3420342034203499
:100B7A002034203420342034203420342034563495
:020B8A00003435
:100B8C0056346F346C3474342F3441346D347034C7
:100B9C006534723469346D346534743472346F3442
:020BAC00003413
:020BAE000F3402
:100BB000203420342034533445344E3441344934C5
:100BC0002034323458343234313420342034203418
:020BD0000034EF
:100BD20041346D3470343D34203420342034203498
:100BE2002034203420342034203420342034413442
:020BF2000034CD
:02400E004A2F37
:00000001FF
